{
  "transactions": [
    {
      "hash": "0x569a3fdf563e2f473edfe1669166c9ae155be488ceacd7120b1c6280658e8cca",
      "transactionType": "CALL",
      "contractName": "KnifeGame",
      "contractAddress": "0x6488b54F9502e9A4B1D7BB90863012F682fe60c6",
      "function": "purchaseSpy(address):(uint256)",
      "arguments": [
        "0xbFc58f666741e3d6794cFeC9153f6CFBda90dabD"
      ],
      "rpc": "http://localhost:8545",
      "transaction": {
        "type": "0x02",
        "from": "0xbfc58f666741e3d6794cfec9153f6cfbda90dabd",
        "to": "0x6488b54f9502e9a4b1d7bb90863012f682fe60c6",
        "gas": "0x48174",
        "value": "0x16345785d8a0000",
        "data": "0xbe501955000000000000000000000000bfc58f666741e3d6794cfec9153f6cfbda90dabd",
        "nonce": "0x0",
        "accessList": []
      },
      "additionalContracts": []
    }
  ],
  "receipts": [],
  "libraries": [],
  "pending": [
    "0x569a3fdf563e2f473edfe1669166c9ae155be488ceacd7120b1c6280658e8cca"
  ],
  "path": "/mnt/c/Users/lmani/Documents/Code/Searchers/KnifeBot/broadcast/BuySpy.s.sol/1/run-latest.json",
  "returns": {},
  "timestamp": 1671285580,
  "chain": 1,
  "multi": false,
  "commit": "89e1714"
}